:020000040800F2
:1000000000000220A1030008F1030008F10300082A
:10001000F1030008F1030008F103000800000000EC
:10002000000000000000000000000000F1030008D4
:10003000F103000800000000F1030008F1030008CC
:10004000F1030008F1030008F1030008F1030008C0
:10005000F1030008F1030008F1030008F1030008B0
:10006000F1030008F1030008F1030008F1030008A0
:10007000F1030008F1030008F1030008F103000890
:10008000F1030008F1030008F1030008F103000880
:10009000F1030008F1030008F1030008F103000870
:1000A000F1030008F1030008F1030008F103000860
:1000B000F1030008F1030008F1030008F103000850
:1000C000F1030008F1030008F1030008F103000840
:1000D000F1030008F1030008F1030008F103000830
:1000E000F1030008F1030008F1030008F103000820
:1000F000F1030008F1030008F1030008F103000810
:10010000F1030008F1030008F1030008F1030008FF
:10011000F1030008F1030008F1030008F1030008EF
:10012000F1030008F1030008F1030008F1030008DF
:10013000F10300080000000000000000F1030008C7
:10014000F1030008F1030008F1030008F1030008BF
:10015000F1030008F1030008F1030008F1030008AF
:10016000F1030008F1030008F1030008F10300089F
:10017000F1030008F1030008F1030008000000008B
:1001800000000000F1030008000000000000000073
:10019000F10300080000000000000000F103000867
:1001A000000000000000000000000000F103000853
:1001B000F1030008F1030008F1030008F10300084F
:0401C000F10300083F
:1001C400044B05481B1A062B02D9044B03B11847EC
:1001D400704700BF330400203004002000000000FA
:1001E40005490648091A891001EBD171491002D05A
:1001F400034B03B11847704730040020300400203B
:100204000000000010B5064C237843B9FFF7D8FF6F
:10021400044B13B10448AFF300800123237010BDD5
:1002240030040020000000000804000808B5084B52
:100234001BB108490848AFF300800848036813B9A4
:10024400BDE80840CCE7064B002BF9D09847F7E708
:1002540000000000340400200804000830040020DA
:100264000000000070470000002301461A461846AB
:1002740000F042B838B50A4C0A4D641BA4100AD0E9
:1002840004F18043013B05EB8305013C55F8043937
:100294009847002CF9D1BDE8384000F0B9B800BF48
:1002A4003C0400083804000870B50F4E0F4D761B4F
:1002B400B61018BF002405D0013455F8043B984704
:1002C400A642F9D10A4E0B4D761B00F09BF8B610EE
:1002D40018BF002406D0013455F8043B9847A642C1
:1002E400F9D170BD70BD00BF3004000830040008AF
:1002F40038040008300400082DE9F047254C25682F
:10030400D5F848410646884692469946C4B3606883
:100314001F2817DC431C76B104EB80050122C5F8C5
:1003240088A0D4F8881182401143022EC4F88811A1
:10033400C5F808911ED00230636044F82080002084
:10034400BDE8F087144B03B34FF4C870AFF30080DB
:100354000446D0B1D5F84831002780E88800C5F8B4
:10036400484138460123C4F88871C4F88C71002EC2
:10037400E1D0D1E7D4F88C110A43C4F88C21DAE730
:1003840005F5A674C5F84841C1E74FF0FF30BDE854
:10039400F08700BF2004000800000000DFF834D01C
:1003A400002103E00C4B5B58435004310B480C4BC9
:1003B40042189A42F6D30B4A02E0002342F8043B67
:1003C400094B9A42F9D3FFF74DFFFFF76DFF00F099
:1003D4000EF87047000002203C04000800000020D2
:1003E40030040020300400204C040020FEE7FEE727
:1003F400024B13B10248FFF737BF704700000000FB
:1004040079020008F8B500BFF8BC08BC9E467047E6
:0C041400F8B500BFF8BC08BC9E4670475D
:08042000080000204300000069
:0804280040FEFF7F010000000F
:08043000F50300083102000889
:0404380009020008AD
:10043C00080000200000000000000000F402002072
:10044C005C030020C403002000000000000000003A
:10045C000000000000000000000000000000000090
:10046C000000000000000000000000002404000850
:10047C000000000000000000000000000000000070
:10048C000000000000000000000000000000000060
:10049C000000000000000000000000000000000050
:1004AC000000000000000000000000000000000040
:1004BC000000000000000000000000000000000030
:1004CC000000000000000000000000000000000020
:1004DC000000000000000000000000000000000010
:1004EC0001000000000000000E33CDAB34126DE6AD
:1004FC00ECDE05000B000000000000000000000016
:10050C0000000000000000000000000000000000DF
:10051C0000000000000000000000000000000000CF
:10052C0000000000000000000000000000000000BF
:10053C0000000000000000000000000000000000AF
:0400000508000000EF
:00000001FF
